{
    "address": "0xB6862c491a9f5B0E59DE1e454152fB37B208294F",
    "abi": [
        {
            "inputs": [
                {
                    "internalType": "address",
                    "name": "_initialOwner",
                    "type": "address"
                },
                {
                    "internalType": "string",
                    "name": "_repositoryName",
                    "type": "string"
                },
                {
                    "internalType": "address",
                    "name": "_tokenAddress",
                    "type": "address"
                },
                {
                    "internalType": "address",
                    "name": "_funderAddress",
                    "type": "address"
                }
            ],
            "stateMutability": "nonpayable",
            "type": "constructor"
        },
        {
            "inputs": [
                {
                    "internalType": "address",
                    "name": "owner",
                    "type": "address"
                }
            ],
            "name": "OwnableInvalidOwner",
            "type": "error"
        },
        {
            "inputs": [
                {
                    "internalType": "address",
                    "name": "account",
                    "type": "address"
                }
            ],
            "name": "OwnableUnauthorizedAccount",
            "type": "error"
        },
        {
            "anonymous": false,
            "inputs": [
                {
                    "indexed": true,
                    "internalType": "address",
                    "name": "previousOwner",
                    "type": "address"
                },
                {
                    "indexed": true,
                    "internalType": "address",
                    "name": "newOwner",
                    "type": "address"
                }
            ],
            "name": "OwnershipTransferred",
            "type": "event"
        },
        {
            "anonymous": false,
            "inputs": [
                {
                    "indexed": true,
                    "internalType": "uint256",
                    "name": "issue",
                    "type": "uint256"
                },
                {
                    "indexed": true,
                    "internalType": "uint256",
                    "name": "pullRequest",
                    "type": "uint256"
                },
                {
                    "indexed": false,
                    "internalType": "uint256",
                    "name": "timestamp",
                    "type": "uint256"
                }
            ],
            "name": "Paid",
            "type": "event"
        },
        {
            "anonymous": false,
            "inputs": [
                {
                    "indexed": true,
                    "internalType": "uint256",
                    "name": "issue",
                    "type": "uint256"
                },
                {
                    "indexed": true,
                    "internalType": "uint256",
                    "name": "amount",
                    "type": "uint256"
                },
                {
                    "indexed": true,
                    "internalType": "address",
                    "name": "recipient",
                    "type": "address"
                },
                {
                    "indexed": false,
                    "internalType": "uint256",
                    "name": "timestamp",
                    "type": "uint256"
                }
            ],
            "name": "Taken",
            "type": "event"
        },
        {
            "stateMutability": "payable",
            "type": "fallback"
        },
        {
            "inputs": [
                {
                    "internalType": "uint256",
                    "name": "",
                    "type": "uint256"
                }
            ],
            "name": "contributions",
            "outputs": [
                {
                    "internalType": "uint256",
                    "name": "issue",
                    "type": "uint256"
                },
                {
                    "internalType": "uint256",
                    "name": "amount",
                    "type": "uint256"
                },
                {
                    "internalType": "address",
                    "name": "recipient",
                    "type": "address"
                },
                {
                    "internalType": "bool",
                    "name": "paid",
                    "type": "bool"
                },
                {
                    "internalType": "uint256",
                    "name": "pullRequest",
                    "type": "uint256"
                }
            ],
            "stateMutability": "view",
            "type": "function"
        },
        {
            "inputs": [],
            "name": "flush",
            "outputs": [],
            "stateMutability": "nonpayable",
            "type": "function"
        },
        {
            "inputs": [],
            "name": "funderAddress",
            "outputs": [
                {
                    "internalType": "address",
                    "name": "",
                    "type": "address"
                }
            ],
            "stateMutability": "view",
            "type": "function"
        },
        {
            "inputs": [
                {
                    "internalType": "uint256",
                    "name": "_issue",
                    "type": "uint256"
                }
            ],
            "name": "getIssue",
            "outputs": [
                {
                    "components": [
                        {
                            "internalType": "uint256",
                            "name": "issue",
                            "type": "uint256"
                        },
                        {
                            "internalType": "uint256",
                            "name": "amount",
                            "type": "uint256"
                        },
                        {
                            "internalType": "address",
                            "name": "recipient",
                            "type": "address"
                        },
                        {
                            "internalType": "bool",
                            "name": "paid",
                            "type": "bool"
                        },
                        {
                            "internalType": "uint256",
                            "name": "pullRequest",
                            "type": "uint256"
                        }
                    ],
                    "internalType": "struct Pattini.Contribution",
                    "name": "",
                    "type": "tuple"
                }
            ],
            "stateMutability": "view",
            "type": "function"
        },
        {
            "inputs": [],
            "name": "owner",
            "outputs": [
                {
                    "internalType": "address",
                    "name": "",
                    "type": "address"
                }
            ],
            "stateMutability": "view",
            "type": "function"
        },
        {
            "inputs": [
                {
                    "internalType": "uint256",
                    "name": "_issue",
                    "type": "uint256"
                },
                {
                    "internalType": "uint256",
                    "name": "_pullRequest",
                    "type": "uint256"
                }
            ],
            "name": "pay",
            "outputs": [],
            "stateMutability": "nonpayable",
            "type": "function"
        },
        {
            "inputs": [],
            "name": "renounceOwnership",
            "outputs": [],
            "stateMutability": "nonpayable",
            "type": "function"
        },
        {
            "inputs": [],
            "name": "repositoryName",
            "outputs": [
                {
                    "internalType": "string",
                    "name": "",
                    "type": "string"
                }
            ],
            "stateMutability": "view",
            "type": "function"
        },
        {
            "inputs": [
                {
                    "internalType": "uint256",
                    "name": "_issue",
                    "type": "uint256"
                },
                {
                    "internalType": "uint256",
                    "name": "_amount",
                    "type": "uint256"
                },
                {
                    "internalType": "address",
                    "name": "_recipient",
                    "type": "address"
                }
            ],
            "name": "take",
            "outputs": [],
            "stateMutability": "nonpayable",
            "type": "function"
        },
        {
            "inputs": [],
            "name": "tokenAddress",
            "outputs": [
                {
                    "internalType": "address",
                    "name": "",
                    "type": "address"
                }
            ],
            "stateMutability": "view",
            "type": "function"
        },
        {
            "inputs": [
                {
                    "internalType": "address",
                    "name": "newOwner",
                    "type": "address"
                }
            ],
            "name": "transferOwnership",
            "outputs": [],
            "stateMutability": "nonpayable",
            "type": "function"
        },
        {
            "stateMutability": "payable",
            "type": "receive"
        }
    ],
    "transactionHash": "0x2b77efead1d0f51e9792b37d8977c490beac83f8c21aa63dc44af6b0751ba490",
    "args": [
        "0x27292E1a901E3E0bE7d144aDba4CAD07da2d8a42",
        "github-action-test",
        "0xe6bcd785b90dc16d667b022cc871c046587d9ac5",
        "0xD8a394e7d7894bDF2C57139fF17e5CBAa29Dd977"
    ],
    "numDeployments": 1,
    "solcInputHash": "3a59a33e854ef2db6dd5a974fd19919c",
    "bytecode": "0x60806040523480156200001157600080fd5b506040516200122c3803806200122c833981016040819052620000349162000137565b836001600160a01b0381166200006457604051631e4fbdf760e01b81526000600482015260240160405180910390fd5b6200006f81620000b4565b5060016200007e8482620002d4565b50600280546001600160a01b039384166001600160a01b0319918216179091556003805492909316911617905550620003a09050565b600080546001600160a01b038381166001600160a01b0319831681178455604051919092169283917f8be0079c531659141344cd1fd0a4f28419497f9722a3daafe3b4186f6b6457e09190a35050565b80516001600160a01b03811681146200011c57600080fd5b919050565b634e487b7160e01b600052604160045260246000fd5b600080600080608085870312156200014e57600080fd5b620001598562000104565b602086810151919550906001600160401b03808211156200017957600080fd5b818801915088601f8301126200018e57600080fd5b815181811115620001a357620001a362000121565b604051601f8201601f19908116603f01168101908382118183101715620001ce57620001ce62000121565b816040528281528b86848701011115620001e757600080fd5b600093505b828410156200020b5784840186015181850187015292850192620001ec565b60008684830101528098505050505050506200022a6040860162000104565b91506200023a6060860162000104565b905092959194509250565b600181811c908216806200025a57607f821691505b6020821081036200027b57634e487b7160e01b600052602260045260246000fd5b50919050565b601f821115620002cf57600081815260208120601f850160051c81016020861015620002aa5750805b601f850160051c820191505b81811015620002cb57828155600101620002b6565b5050505b505050565b81516001600160401b03811115620002f057620002f062000121565b620003088162000301845462000245565b8462000281565b602080601f831160018114620003405760008415620003275750858301515b600019600386901b1c1916600185901b178555620002cb565b600085815260208120601f198616915b82811015620003715788860151825594840194600190910190840162000350565b5085821015620003905787850151600019600388901b60f8161c191681555b5050505050600190811b01905550565b610e7c80620003b06000396000f3fe6080604052600436106100a05760003560e01c8063976b311311610064578063976b31131461018a5780639d76ea58146101f2578063adec5ed514610212578063b4ee031814610232578063ef48eee614610252578063f2fde38b1461027257600080fd5b80631cee0700146100af5780636b9f96ea1461010a578063715018a61461012157806386019a3f146101365780638da5cb5b1461015857600080fd5b366100aa57600080fd5b600080fd5b3480156100bb57600080fd5b506100cf6100ca366004610c4d565b610292565b6040805195865260208601949094526001600160a01b03909216928401929092529015156060830152608082015260a0015b60405180910390f35b34801561011657600080fd5b5061011f6102e2565b005b34801561012d57600080fd5b5061011f6105bf565b34801561014257600080fd5b5061014b6105d3565b6040516101019190610c66565b34801561016457600080fd5b506000546001600160a01b03165b6040516001600160a01b039091168152602001610101565b34801561019657600080fd5b506101aa6101a5366004610c4d565b610661565b604051610101919081518152602080830151908201526040808301516001600160a01b0316908201526060808301511515908201526080918201519181019190915260a00190565b3480156101fe57600080fd5b50600254610172906001600160a01b031681565b34801561021e57600080fd5b50600354610172906001600160a01b031681565b34801561023e57600080fd5b5061011f61024d366004610cd0565b610725565b34801561025e57600080fd5b5061011f61026d366004610d05565b610904565b34801561027e57600080fd5b5061011f61028d366004610d27565b610b37565b600481815481106102a257600080fd5b60009182526020909120600490910201805460018201546002830154600390930154919350916001600160a01b03811691600160a01b90910460ff169085565b6003546001600160a01b031633146103415760405162461bcd60e51b815260206004820152601860248201527f43616c6c6572206973206e6f74207468652066756e646572000000000000000060448201526064015b60405180910390fd5b6000805b60045481101561043e576004818154811061036257610362610d49565b6000918252602082206002600490920201015460ff600160a01b909104161515900361042c5760005b60045481101561042a57600481815481106103a8576103a8610d49565b906000526020600020906004020160000154600483815481106103cd576103cd610d49565b906000526020600020906004020160000154031561041857600482815481106103f8576103f8610d49565b906000526020600020906004020160010154836104159190610d75565b92505b8061042281610d8e565b91505061038b565b505b8061043681610d8e565b915050610345565b50600061045382670de0b6b3a7640000610da7565b6002546040516370a0823160e01b81523060048201526001600160a01b03909116906370a0823190602401602060405180830381865afa15801561049b573d6000803e3d6000fd5b505050506040513d601f19601f820116820180604052508101906104bf9190610dbe565b6104c99190610dd7565b6002546040516370a0823160e01b81523060048201526001600160a01b03909116906370a0823190602401602060405180830381865afa158015610511573d6000803e3d6000fd5b505050506040513d601f19601f820116820180604052508101906105359190610dbe565b61053f9190610dd7565b60025460035460405163a9059cbb60e01b81526001600160a01b03918216600482015260248101849052929350169063a9059cbb906044016020604051808303816000875af1158015610596573d6000803e3d6000fd5b505050506040513d601f19601f820116820180604052508101906105ba9190610dea565b505050565b6105c7610b75565b6105d16000610ba2565b565b600180546105e090610e0c565b80601f016020809104026020016040519081016040528092919081815260200182805461060c90610e0c565b80156106595780601f1061062e57610100808354040283529160200191610659565b820191906000526020600020905b81548152906001019060200180831161063c57829003601f168201915b505050505081565b61069e6040518060a00160405280600081526020016000815260200160006001600160a01b03168152602001600015158152602001600081525090565b60006106a983610bf2565b9050600481815481106106be576106be610d49565b60009182526020918290206040805160a08101825260049093029091018054835260018101549383019390935260028301546001600160a01b0381169183019190915260ff600160a01b909104161515606082015260039091015460808201529392505050565b61072d610b75565b600061073884610bf2565b60045490915081148061077a57506004818154811061075957610759610d49565b906000526020600020906004020160020160149054906101000a900460ff16155b6107bb5760405162461bcd60e51b8152602060048201526012602482015271125cdcdd5948185b1c9958591e481c185a5960721b6044820152606401610338565b6040805160a081018252858152602081018581526001600160a01b038086168385018181526000606086018181526080870182815260048054600181018255938190529751929097027f8a35acfbc15ff81a39ae7d344fd709f28e8600b4aa8c65c6b64bfe7fe36bd19b81019290925594517f8a35acfbc15ff81a39ae7d344fd709f28e8600b4aa8c65c6b64bfe7fe36bd19c82015590517f8a35acfbc15ff81a39ae7d344fd709f28e8600b4aa8c65c6b64bfe7fe36bd19d8201805495511515600160a01b026001600160a81b031990961691909416179390931790915591517f8a35acfbc15ff81a39ae7d344fd709f28e8600b4aa8c65c6b64bfe7fe36bd19e909101559051849086907f22049d44e4c791ddc0713075a2cf0256959d04b027427b08bf5b8c0e9c75e4de906108f69042815260200190565b60405180910390a450505050565b61090c610b75565b600061091783610bf2565b90506004818154811061092c5761092c610d49565b906000526020600020906004020160020160149054906101000a900460ff161561098d5760405162461bcd60e51b8152602060048201526012602482015271125cdcdd5948185b1c9958591e481c185a5960721b6044820152606401610338565b81600482815481106109a1576109a1610d49565b9060005260206000209060040201600301819055506001600482815481106109cb576109cb610d49565b906000526020600020906004020160020160146101000a81548160ff021916908315150217905550600260009054906101000a90046001600160a01b03166001600160a01b031663a9059cbb60048381548110610a2a57610a2a610d49565b906000526020600020906004020160020160009054906101000a90046001600160a01b031660048481548110610a6257610a62610d49565b906000526020600020906004020160010154670de0b6b3a7640000610a879190610da7565b6040516001600160e01b031960e085901b1681526001600160a01b03909216600483015260248201526044016020604051808303816000875af1158015610ad2573d6000803e3d6000fd5b505050506040513d601f19601f82011682018060405250810190610af69190610dea565b5081837f6015fce7263ca58690e6c17944e54e2fd202d8f1141f0a9f5cdcd6ec8598dd8b42604051610b2a91815260200190565b60405180910390a3505050565b610b3f610b75565b6001600160a01b038116610b6957604051631e4fbdf760e01b815260006004820152602401610338565b610b7281610ba2565b50565b6000546001600160a01b031633146105d15760405163118cdaa760e01b8152336004820152602401610338565b600080546001600160a01b038381166001600160a01b0319831681178455604051919092169283917f8be0079c531659141344cd1fd0a4f28419497f9722a3daafe3b4186f6b6457e09190a35050565b6000805b600454811015610c43578260048281548110610c1457610c14610d49565b90600052602060002090600402016000015403610c315792915050565b80610c3b81610d8e565b915050610bf6565b5050600454919050565b600060208284031215610c5f57600080fd5b5035919050565b600060208083528351808285015260005b81811015610c9357858101830151858201604001528201610c77565b506000604082860101526040601f19601f8301168501019250505092915050565b80356001600160a01b0381168114610ccb57600080fd5b919050565b600080600060608486031215610ce557600080fd5b8335925060208401359150610cfc60408501610cb4565b90509250925092565b60008060408385031215610d1857600080fd5b50508035926020909101359150565b600060208284031215610d3957600080fd5b610d4282610cb4565b9392505050565b634e487b7160e01b600052603260045260246000fd5b634e487b7160e01b600052601160045260246000fd5b80820180821115610d8857610d88610d5f565b92915050565b600060018201610da057610da0610d5f565b5060010190565b8082028115828204841417610d8857610d88610d5f565b600060208284031215610dd057600080fd5b5051919050565b81810381811115610d8857610d88610d5f565b600060208284031215610dfc57600080fd5b81518015158114610d4257600080fd5b600181811c90821680610e2057607f821691505b602082108103610e4057634e487b7160e01b600052602260045260246000fd5b5091905056fea2646970667358221220317bb4218314a5a574fe2746f09dbeb10782db1f157c7766cd44d0b10d462d2b64736f6c63430008140033",
    "devdoc": {
        "errors": {
            "OwnableInvalidOwner(address)": [
                {
                    "details": "The owner is not a valid owner account. (eg. `address(0)`)"
                }
            ],
            "OwnableUnauthorizedAccount(address)": [
                {
                    "details": "The caller account is not authorized to perform an operation."
                }
            ]
        },
        "kind": "dev",
        "methods": {
            "owner()": {
                "details": "Returns the address of the current owner."
            },
            "renounceOwnership()": {
                "details": "Leaves the contract without owner. It will not be possible to call `onlyOwner` functions. Can only be called by the current owner. NOTE: Renouncing ownership will leave the contract without an owner, thereby disabling any functionality that is only available to the owner."
            },
            "transferOwnership(address)": {
                "details": "Transfers ownership of the contract to a new account (`newOwner`). Can only be called by the current owner."
            }
        },
        "version": 1
    },
    "userdoc": {
        "kind": "user",
        "methods": {},
        "version": 1
    },
    "storageLayout": {
        "storage": [
            {
                "astId": 8,
                "contract": "contracts/Pattini.sol:Pattini",
                "label": "_owner",
                "offset": 0,
                "slot": "0",
                "type": "t_address"
            },
            {
                "astId": 941,
                "contract": "contracts/Pattini.sol:Pattini",
                "label": "repositoryName",
                "offset": 0,
                "slot": "1",
                "type": "t_string_storage"
            },
            {
                "astId": 943,
                "contract": "contracts/Pattini.sol:Pattini",
                "label": "tokenAddress",
                "offset": 0,
                "slot": "2",
                "type": "t_address"
            },
            {
                "astId": 945,
                "contract": "contracts/Pattini.sol:Pattini",
                "label": "funderAddress",
                "offset": 0,
                "slot": "3",
                "type": "t_address"
            },
            {
                "astId": 960,
                "contract": "contracts/Pattini.sol:Pattini",
                "label": "contributions",
                "offset": 0,
                "slot": "4",
                "type": "t_array(t_struct(Contribution)956_storage)dyn_storage"
            }
        ],
        "types": {
            "t_address": {
                "encoding": "inplace",
                "label": "address",
                "numberOfBytes": "20"
            },
            "t_array(t_struct(Contribution)956_storage)dyn_storage": {
                "base": "t_struct(Contribution)956_storage",
                "encoding": "dynamic_array",
                "label": "struct Pattini.Contribution[]",
                "numberOfBytes": "32"
            },
            "t_bool": {
                "encoding": "inplace",
                "label": "bool",
                "numberOfBytes": "1"
            },
            "t_string_storage": {
                "encoding": "bytes",
                "label": "string",
                "numberOfBytes": "32"
            },
            "t_struct(Contribution)956_storage": {
                "encoding": "inplace",
                "label": "struct Pattini.Contribution",
                "members": [
                    {
                        "astId": 947,
                        "contract": "contracts/Pattini.sol:Pattini",
                        "label": "issue",
                        "offset": 0,
                        "slot": "0",
                        "type": "t_uint256"
                    },
                    {
                        "astId": 949,
                        "contract": "contracts/Pattini.sol:Pattini",
                        "label": "amount",
                        "offset": 0,
                        "slot": "1",
                        "type": "t_uint256"
                    },
                    {
                        "astId": 951,
                        "contract": "contracts/Pattini.sol:Pattini",
                        "label": "recipient",
                        "offset": 0,
                        "slot": "2",
                        "type": "t_address"
                    },
                    {
                        "astId": 953,
                        "contract": "contracts/Pattini.sol:Pattini",
                        "label": "paid",
                        "offset": 20,
                        "slot": "2",
                        "type": "t_bool"
                    },
                    {
                        "astId": 955,
                        "contract": "contracts/Pattini.sol:Pattini",
                        "label": "pullRequest",
                        "offset": 0,
                        "slot": "3",
                        "type": "t_uint256"
                    }
                ],
                "numberOfBytes": "128"
            },
            "t_uint256": {
                "encoding": "inplace",
                "label": "uint256",
                "numberOfBytes": "32"
            }
        }
    }
}