{
  "address": "0x4ce76EA09136fA38CD54c2EE82ab8403A9b8A414",
  "abi": [
    {
      "inputs": [
        {
          "internalType": "string",
          "name": "_repositoryName",
          "type": "string"
        },
        {
          "internalType": "address",
          "name": "_tokenAddress",
          "type": "address"
        },
        {
          "internalType": "address",
          "name": "_funderAddress",
          "type": "address"
        }
      ],
      "stateMutability": "nonpayable",
      "type": "constructor"
    },
    {
      "anonymous": false,
      "inputs": [
        {
          "indexed": true,
          "internalType": "address",
          "name": "previousOwner",
          "type": "address"
        },
        {
          "indexed": true,
          "internalType": "address",
          "name": "newOwner",
          "type": "address"
        }
      ],
      "name": "OwnershipTransferred",
      "type": "event"
    },
    {
      "anonymous": false,
      "inputs": [
        {
          "indexed": true,
          "internalType": "uint256",
          "name": "issue",
          "type": "uint256"
        },
        {
          "indexed": true,
          "internalType": "uint256",
          "name": "pullRequest",
          "type": "uint256"
        },
        {
          "indexed": true,
          "internalType": "string",
          "name": "commitHash",
          "type": "string"
        },
        {
          "indexed": false,
          "internalType": "uint256",
          "name": "timestamp",
          "type": "uint256"
        }
      ],
      "name": "Paid",
      "type": "event"
    },
    {
      "anonymous": false,
      "inputs": [
        {
          "indexed": true,
          "internalType": "uint256",
          "name": "issue",
          "type": "uint256"
        },
        {
          "indexed": true,
          "internalType": "uint256",
          "name": "amount",
          "type": "uint256"
        },
        {
          "indexed": true,
          "internalType": "address",
          "name": "recipient",
          "type": "address"
        },
        {
          "indexed": false,
          "internalType": "string",
          "name": "previousCommitHash",
          "type": "string"
        },
        {
          "indexed": false,
          "internalType": "uint256",
          "name": "timestamp",
          "type": "uint256"
        }
      ],
      "name": "Taken",
      "type": "event"
    },
    {
      "stateMutability": "payable",
      "type": "fallback"
    },
    {
      "inputs": [
        {
          "internalType": "uint256",
          "name": "",
          "type": "uint256"
        }
      ],
      "name": "contributions",
      "outputs": [
        {
          "internalType": "uint256",
          "name": "issue",
          "type": "uint256"
        },
        {
          "internalType": "uint256",
          "name": "amount",
          "type": "uint256"
        },
        {
          "internalType": "string",
          "name": "previousCommitHash",
          "type": "string"
        },
        {
          "internalType": "address",
          "name": "recipient",
          "type": "address"
        },
        {
          "internalType": "bool",
          "name": "paid",
          "type": "bool"
        },
        {
          "internalType": "uint256",
          "name": "pullRequest",
          "type": "uint256"
        },
        {
          "internalType": "string",
          "name": "commitHash",
          "type": "string"
        }
      ],
      "stateMutability": "view",
      "type": "function"
    },
    {
      "inputs": [
        {
          "internalType": "uint256",
          "name": "_issue",
          "type": "uint256"
        }
      ],
      "name": "flush",
      "outputs": [],
      "stateMutability": "nonpayable",
      "type": "function"
    },
    {
      "inputs": [],
      "name": "funderAddress",
      "outputs": [
        {
          "internalType": "address",
          "name": "",
          "type": "address"
        }
      ],
      "stateMutability": "view",
      "type": "function"
    },
    {
      "inputs": [
        {
          "internalType": "uint256",
          "name": "_issue",
          "type": "uint256"
        }
      ],
      "name": "getIssue",
      "outputs": [
        {
          "components": [
            {
              "internalType": "uint256",
              "name": "issue",
              "type": "uint256"
            },
            {
              "internalType": "uint256",
              "name": "amount",
              "type": "uint256"
            },
            {
              "internalType": "string",
              "name": "previousCommitHash",
              "type": "string"
            },
            {
              "internalType": "address",
              "name": "recipient",
              "type": "address"
            },
            {
              "internalType": "bool",
              "name": "paid",
              "type": "bool"
            },
            {
              "internalType": "uint256",
              "name": "pullRequest",
              "type": "uint256"
            },
            {
              "internalType": "string",
              "name": "commitHash",
              "type": "string"
            }
          ],
          "internalType": "struct Pattini.Contribution",
          "name": "",
          "type": "tuple"
        }
      ],
      "stateMutability": "view",
      "type": "function"
    },
    {
      "inputs": [],
      "name": "owner",
      "outputs": [
        {
          "internalType": "address",
          "name": "",
          "type": "address"
        }
      ],
      "stateMutability": "view",
      "type": "function"
    },
    {
      "inputs": [
        {
          "internalType": "uint256",
          "name": "_issue",
          "type": "uint256"
        },
        {
          "internalType": "uint256",
          "name": "_pullRequest",
          "type": "uint256"
        },
        {
          "internalType": "string",
          "name": "_commitHash",
          "type": "string"
        }
      ],
      "name": "pay",
      "outputs": [],
      "stateMutability": "nonpayable",
      "type": "function"
    },
    {
      "inputs": [],
      "name": "renounceOwnership",
      "outputs": [],
      "stateMutability": "nonpayable",
      "type": "function"
    },
    {
      "inputs": [],
      "name": "repositoryName",
      "outputs": [
        {
          "internalType": "string",
          "name": "",
          "type": "string"
        }
      ],
      "stateMutability": "view",
      "type": "function"
    },
    {
      "inputs": [
        {
          "internalType": "uint256",
          "name": "_issue",
          "type": "uint256"
        },
        {
          "internalType": "uint256",
          "name": "_amount",
          "type": "uint256"
        },
        {
          "internalType": "string",
          "name": "_previousCommitHash",
          "type": "string"
        },
        {
          "internalType": "address",
          "name": "_recipient",
          "type": "address"
        }
      ],
      "name": "take",
      "outputs": [],
      "stateMutability": "nonpayable",
      "type": "function"
    },
    {
      "inputs": [],
      "name": "tokenAddress",
      "outputs": [
        {
          "internalType": "address",
          "name": "",
          "type": "address"
        }
      ],
      "stateMutability": "view",
      "type": "function"
    },
    {
      "inputs": [
        {
          "internalType": "address",
          "name": "newOwner",
          "type": "address"
        }
      ],
      "name": "transferOwnership",
      "outputs": [],
      "stateMutability": "nonpayable",
      "type": "function"
    },
    {
      "stateMutability": "payable",
      "type": "receive"
    }
  ],
  "transactionHash": "0x11e99164b3d17d4eeffe35c0d2e15336fac90cae6c650cd25b8ddf6e32290b2c",
  "args": [
    "github-action-test",
    "0xe6bcd785b90dc16d667b022cc871c046587d9ac5",
    "0xD8a394e7d7894bDF2C57139fF17e5CBAa29Dd977"
  ],
  "numDeployments": 1,
  "solcInputHash": "7ac76b03d66c99a0cb97823d66208ce3",
  "bytecode": "0x60806040523480156200001157600080fd5b506040516200145338038062001453833981016040819052620000349162000107565b6200003f3362000084565b60016200004d848262000290565b50600380546001600160a01b039283166001600160a01b03199182161790915560028054939092169216919091179055506200035c565b600080546001600160a01b038381166001600160a01b0319831681178455604051919092169283917f8be0079c531659141344cd1fd0a4f28419497f9722a3daafe3b4186f6b6457e09190a35050565b634e487b7160e01b600052604160045260246000fd5b80516001600160a01b03811681146200010257600080fd5b919050565b6000806000606084860312156200011d57600080fd5b83516001600160401b03808211156200013557600080fd5b818601915086601f8301126200014a57600080fd5b8151818111156200015f576200015f620000d4565b604051601f8201601f19908116603f011681019083821181831017156200018a576200018a620000d4565b81604052828152602093508984848701011115620001a757600080fd5b600091505b82821015620001cb5784820184015181830185015290830190620001ac565b6000848483010152809750505050620001e6818701620000ea565b93505050620001f860408501620000ea565b90509250925092565b600181811c908216806200021657607f821691505b6020821081036200023757634e487b7160e01b600052602260045260246000fd5b50919050565b601f8211156200028b57600081815260208120601f850160051c81016020861015620002665750805b601f850160051c820191505b81811015620002875782815560010162000272565b5050505b505050565b81516001600160401b03811115620002ac57620002ac620000d4565b620002c481620002bd845462000201565b846200023d565b602080601f831160018114620002fc5760008415620002e35750858301515b600019600386901b1c1916600185901b17855562000287565b600085815260208120601f198616915b828110156200032d578886015182559484019460019091019084016200030c565b50858210156200034c5787850151600019600388901b60f8161c191681555b5050505050600190811b01905550565b6110e7806200036c6000396000f3fe6080604052600436106100a05760003560e01c80639d76ea58116100645780639d76ea5814610183578063ab8cf592146101a3578063adec5ed5146101c3578063b3d1958d146101e3578063d98820e514610203578063f2fde38b1461022357600080fd5b80631cee0700146100af578063715018a6146100eb57806386019a3f146101025780638da5cb5b14610124578063976b31131461015657600080fd5b366100aa57600080fd5b600080fd5b3480156100bb57600080fd5b506100cf6100ca366004610bbc565b610243565b6040516100e29796959493929190610c25565b60405180910390f35b3480156100f757600080fd5b506101006103b7565b005b34801561010e57600080fd5b506101176103cb565b6040516100e29190610c82565b34801561013057600080fd5b506000546001600160a01b03165b6040516001600160a01b0390911681526020016100e2565b34801561016257600080fd5b50610176610171366004610bbc565b610459565b6040516100e29190610c9c565b34801561018f57600080fd5b5060025461013e906001600160a01b031681565b3480156101af57600080fd5b506101006101be366004610dbe565b610650565b3480156101cf57600080fd5b5060035461013e906001600160a01b031681565b3480156101ef57600080fd5b506101006101fe366004610bbc565b610850565b34801561020f57600080fd5b5061010061021e366004610e2a565b6108b2565b34801561022f57600080fd5b5061010061023e366004610e8b565b610a44565b6004818154811061025357600080fd5b906000526020600020906006020160009150905080600001549080600101549080600201805461028290610ea6565b80601f01602080910402602001604051908101604052809291908181526020018280546102ae90610ea6565b80156102fb5780601f106102d0576101008083540402835291602001916102fb565b820191906000526020600020905b8154815290600101906020018083116102de57829003601f168201915b505050506003830154600484015460058501805494956001600160a01b03841695600160a01b90940460ff169450919261033490610ea6565b80601f016020809104026020016040519081016040528092919081815260200182805461036090610ea6565b80156103ad5780601f10610382576101008083540402835291602001916103ad565b820191906000526020600020905b81548152906001019060200180831161039057829003601f168201915b5050505050905087565b6103bf610aba565b6103c96000610b14565b565b600180546103d890610ea6565b80601f016020809104026020016040519081016040528092919081815260200182805461040490610ea6565b80156104515780601f1061042657610100808354040283529160200191610451565b820191906000526020600020905b81548152906001019060200180831161043457829003601f168201915b505050505081565b6104a46040518060e0016040528060008152602001600081526020016060815260200160006001600160a01b0316815260200160001515815260200160008152602001606081525090565b60006104af83610b64565b9050600481815481106104c4576104c4610ee0565b90600052602060002090600602016040518060e0016040529081600082015481526020016001820154815260200160028201805461050190610ea6565b80601f016020809104026020016040519081016040528092919081815260200182805461052d90610ea6565b801561057a5780601f1061054f5761010080835404028352916020019161057a565b820191906000526020600020905b81548152906001019060200180831161055d57829003601f168201915b505050918352505060038201546001600160a01b0381166020830152600160a01b900460ff1615156040820152600482015460608201526005820180546080909201916105c690610ea6565b80601f01602080910402602001604051908101604052809291908181526020018280546105f290610ea6565b801561063f5780601f106106145761010080835404028352916020019161063f565b820191906000526020600020905b81548152906001019060200180831161062257829003601f168201915b505050505081525050915050919050565b610658610aba565b600061066384610b64565b9050826004828154811061067957610679610ee0565b90600052602060002090600602016004018190555081600482815481106106a2576106a2610ee0565b906000526020600020906006020160050190816106bf9190610f45565b506001600482815481106106d5576106d5610ee0565b600091825260209091206003600690920201018054911515600160a01b0260ff60a01b19909216919091179055600254600480546001600160a01b039092169163a9059cbb91908490811061072c5761072c610ee0565b906000526020600020906006020160030160009054906101000a90046001600160a01b03166004848154811061076457610764610ee0565b906000526020600020906006020160010154670de0b6b3a7640000610789919061101b565b6040516001600160e01b031960e085901b1681526001600160a01b03909216600483015260248201526044016020604051808303816000875af11580156107d4573d6000803e3d6000fd5b505050506040513d601f19601f820116820180604052508101906107f89190611038565b5081604051610807919061105a565b604051809103902083857ff0e74f72c12106ef5541e0ac1058db573fed743af271350b4a302886cdadfdb84260405161084291815260200190565b60405180910390a450505050565b6003546001600160a01b031633146108af5760405162461bcd60e51b815260206004820152601860248201527f43616c6c6572206973206e6f74207468652066756e646572000000000000000060448201526064015b60405180910390fd5b50565b6108ba610aba565b6040805160e08101825285815260208082018681528284018681526001600160a01b038616606085015260006080850181905260a08501819052855180870190965260058652641d5b9cd95d60da1b9386019390935260c0840194909452600480546001810182559252825160069092027f8a35acfbc15ff81a39ae7d344fd709f28e8600b4aa8c65c6b64bfe7fe36bd19b810192835590517f8a35acfbc15ff81a39ae7d344fd709f28e8600b4aa8c65c6b64bfe7fe36bd19c8201559251919290917f8a35acfbc15ff81a39ae7d344fd709f28e8600b4aa8c65c6b64bfe7fe36bd19d909101906109ac9082610f45565b50606082015160038201805460808501511515600160a01b026001600160a81b03199091166001600160a01b039093169290921791909117905560a0820151600482015560c08201516005820190610a049082610f45565b505050806001600160a01b031683857f78cbe14fe148897fb94270720ef35a8336ba82aac73f09ddce6ad58ec456fb4d8542604051610842929190611076565b610a4c610aba565b6001600160a01b038116610ab15760405162461bcd60e51b815260206004820152602660248201527f4f776e61626c653a206e6577206f776e657220697320746865207a65726f206160448201526564647265737360d01b60648201526084016108a6565b6108af81610b14565b6000546001600160a01b031633146103c95760405162461bcd60e51b815260206004820181905260248201527f4f776e61626c653a2063616c6c6572206973206e6f7420746865206f776e657260448201526064016108a6565b600080546001600160a01b038381166001600160a01b0319831681178455604051919092169283917f8be0079c531659141344cd1fd0a4f28419497f9722a3daafe3b4186f6b6457e09190a35050565b60008060005b600454811015610bb5578360048281548110610b8857610b88610ee0565b90600052602060002090600602016000015403610ba3578091505b80610bad81611098565b915050610b6a565b5092915050565b600060208284031215610bce57600080fd5b5035919050565b60005b83811015610bf0578181015183820152602001610bd8565b50506000910152565b60008151808452610c11816020860160208601610bd5565b601f01601f19169290920160200192915050565b87815286602082015260e060408201526000610c4460e0830188610bf9565b6001600160a01b0387166060840152851515608084015260a0830185905282810360c0840152610c748185610bf9565b9a9950505050505050505050565b602081526000610c956020830184610bf9565b9392505050565b6020815281516020820152602082015160408201526000604083015160e06060840152610ccd610100840182610bf9565b905060018060a01b0360608501511660808401526080840151151560a084015260a084015160c084015260c0840151601f198483030160e0850152610d128282610bf9565b95945050505050565b634e487b7160e01b600052604160045260246000fd5b600082601f830112610d4257600080fd5b813567ffffffffffffffff80821115610d5d57610d5d610d1b565b604051601f8301601f19908116603f01168101908282118183101715610d8557610d85610d1b565b81604052838152866020858801011115610d9e57600080fd5b836020870160208301376000602085830101528094505050505092915050565b600080600060608486031215610dd357600080fd5b8335925060208401359150604084013567ffffffffffffffff811115610df857600080fd5b610e0486828701610d31565b9150509250925092565b80356001600160a01b0381168114610e2557600080fd5b919050565b60008060008060808587031215610e4057600080fd5b8435935060208501359250604085013567ffffffffffffffff811115610e6557600080fd5b610e7187828801610d31565b925050610e8060608601610e0e565b905092959194509250565b600060208284031215610e9d57600080fd5b610c9582610e0e565b600181811c90821680610eba57607f821691505b602082108103610eda57634e487b7160e01b600052602260045260246000fd5b50919050565b634e487b7160e01b600052603260045260246000fd5b601f821115610f4057600081815260208120601f850160051c81016020861015610f1d5750805b601f850160051c820191505b81811015610f3c57828155600101610f29565b5050505b505050565b815167ffffffffffffffff811115610f5f57610f5f610d1b565b610f7381610f6d8454610ea6565b84610ef6565b602080601f831160018114610fa85760008415610f905750858301515b600019600386901b1c1916600185901b178555610f3c565b600085815260208120601f198616915b82811015610fd757888601518255948401946001909101908401610fb8565b5085821015610ff55787850151600019600388901b60f8161c191681555b5050505050600190811b01905550565b634e487b7160e01b600052601160045260246000fd5b808202811582820484141761103257611032611005565b92915050565b60006020828403121561104a57600080fd5b81518015158114610c9557600080fd5b6000825161106c818460208701610bd5565b9190910192915050565b6040815260006110896040830185610bf9565b90508260208301529392505050565b6000600182016110aa576110aa611005565b506001019056fea26469706673582212207ba278153527270ecd073c8f38629ec12715b059bf3ef4802377dd649af90f7464736f6c63430008130033",
  "devdoc": {
    "kind": "dev",
    "methods": {
      "owner()": {
        "details": "Returns the address of the current owner."
      },
      "renounceOwnership()": {
        "details": "Leaves the contract without owner. It will not be possible to call `onlyOwner` functions. Can only be called by the current owner. NOTE: Renouncing ownership will leave the contract without an owner, thereby disabling any functionality that is only available to the owner."
      },
      "transferOwnership(address)": {
        "details": "Transfers ownership of the contract to a new account (`newOwner`). Can only be called by the current owner."
      }
    },
    "version": 1
  },
  "userdoc": {
    "kind": "user",
    "methods": {},
    "version": 1
  },
  "storageLayout": {
    "storage": [
      {
        "astId": 7,
        "contract": "contracts/Pattini.sol:Pattini",
        "label": "_owner",
        "offset": 0,
        "slot": "0",
        "type": "t_address"
      },
      {
        "astId": 832,
        "contract": "contracts/Pattini.sol:Pattini",
        "label": "repositoryName",
        "offset": 0,
        "slot": "1",
        "type": "t_string_storage"
      },
      {
        "astId": 834,
        "contract": "contracts/Pattini.sol:Pattini",
        "label": "tokenAddress",
        "offset": 0,
        "slot": "2",
        "type": "t_address"
      },
      {
        "astId": 836,
        "contract": "contracts/Pattini.sol:Pattini",
        "label": "funderAddress",
        "offset": 0,
        "slot": "3",
        "type": "t_address"
      },
      {
        "astId": 855,
        "contract": "contracts/Pattini.sol:Pattini",
        "label": "contributions",
        "offset": 0,
        "slot": "4",
        "type": "t_array(t_struct(Contribution)851_storage)dyn_storage"
      }
    ],
    "types": {
      "t_address": {
        "encoding": "inplace",
        "label": "address",
        "numberOfBytes": "20"
      },
      "t_array(t_struct(Contribution)851_storage)dyn_storage": {
        "base": "t_struct(Contribution)851_storage",
        "encoding": "dynamic_array",
        "label": "struct Pattini.Contribution[]",
        "numberOfBytes": "32"
      },
      "t_bool": {
        "encoding": "inplace",
        "label": "bool",
        "numberOfBytes": "1"
      },
      "t_string_storage": {
        "encoding": "bytes",
        "label": "string",
        "numberOfBytes": "32"
      },
      "t_struct(Contribution)851_storage": {
        "encoding": "inplace",
        "label": "struct Pattini.Contribution",
        "members": [
          {
            "astId": 838,
            "contract": "contracts/Pattini.sol:Pattini",
            "label": "issue",
            "offset": 0,
            "slot": "0",
            "type": "t_uint256"
          },
          {
            "astId": 840,
            "contract": "contracts/Pattini.sol:Pattini",
            "label": "amount",
            "offset": 0,
            "slot": "1",
            "type": "t_uint256"
          },
          {
            "astId": 842,
            "contract": "contracts/Pattini.sol:Pattini",
            "label": "previousCommitHash",
            "offset": 0,
            "slot": "2",
            "type": "t_string_storage"
          },
          {
            "astId": 844,
            "contract": "contracts/Pattini.sol:Pattini",
            "label": "recipient",
            "offset": 0,
            "slot": "3",
            "type": "t_address"
          },
          {
            "astId": 846,
            "contract": "contracts/Pattini.sol:Pattini",
            "label": "paid",
            "offset": 20,
            "slot": "3",
            "type": "t_bool"
          },
          {
            "astId": 848,
            "contract": "contracts/Pattini.sol:Pattini",
            "label": "pullRequest",
            "offset": 0,
            "slot": "4",
            "type": "t_uint256"
          },
          {
            "astId": 850,
            "contract": "contracts/Pattini.sol:Pattini",
            "label": "commitHash",
            "offset": 0,
            "slot": "5",
            "type": "t_string_storage"
          }
        ],
        "numberOfBytes": "192"
      },
      "t_uint256": {
        "encoding": "inplace",
        "label": "uint256",
        "numberOfBytes": "32"
      }
    }
  }
}